:020000040800F2
:10000000FCFF0724CD0F0008890C00088B0C0008AA
:100010008D0C00088F0C0008910C000800000000F7
:10002000000000000000000000000000930C000829
:10003000950C000800000000970C0008990C0008BF
:1000400021100008211000082110000821100008CC
:1000500021100008211000082110000821100008BC
:1000600021100008211000082110000821100008AC
:10007000211000082110000821100008211000089C
:10008000211000082110000821100008211000088C
:10009000211000082110000821100008211000087C
:1000A000211000082110000821100008211000086C
:1000B000211000082110000821100008211000085C
:1000C000211000082110000821100008211000084C
:1000D000211000082110000821100008211000083C
:1000E0002110000821100008000000002110000865
:1000F000211000082110000821100008211000081C
:10010000211000082110000821100008211000080B
:1001100021100008211000082110000821100008FB
:1001200021100008211000082110000821100008EB
:1001300021100008211000082110000821100008DB
:10014000211000082110000800000000000000003D
:1001500021100008211000082110000821100008BB
:1001600021100008211000082110000821100008AB
:1001700021100008A10C0008211000080000000058
:10018000211000082110000821100008211000088B
:10019000211000082110000821100008211000087B
:1001A000211000082110000821100008211000086B
:1001B000211000082110000821100008211000085B
:1001C000211000082110000821100008211000084B
:1001D000211000082110000821100008211000083B
:1001E000211000082110000821100008211000082B
:1001F000211000082110000821100008211000081B
:10020000211000082110000821100008211000080A
:1002100021100008211000082110000821100008FA
:1002200021100008211000082110000821100008EA
:1002300021100008211000082110000821100008DA
:1002400021100008211000082110000821100008CA
:1002500021100008211000082110000821100008BA
:1002600021100008211000082110000821100008AA
:10027000211000082110000821100008211000089A
:1002800021100008211000082110000800000000C3
:080290002110000821100008F4
:1002A00010B5054C237833B9044B13B10448AFF3B0
:1002B00000800123237010BD5C01002400000000B9
:1002C0007481000808B5034B1BB103490348AFF321
:1002D000008008BD00000000600100247481000857
:1002E00001F0FF01102A2BDB10F0070F08D010F8E7
:1002F000013B013A8B422DD010F0070F42B3F6D1EB
:10030000F0B441EA012141EA014122F007047FF003
:1003100000070023F0E80256083C85EA010586EA5A
:10032000010685FA47F5A3FA87F586FA47F6A5FA96
:1003300087F68EB9EED1F0BC01F0FF0102F00702A2
:1003400032B110F8013B013A83EA010313B1F8D14D
:100350000020704701387047002D06BF354603382E
:10036000073815F0010F07D1013015F4807F02BF67
:10037000013015F4C03F0130F0BC0138704700BFB8
:1003800053B94AB9002908BF00281CBF4FF0FF31FC
:100390004FF0FF3000F088B9ADF1080C6DE904CEE4
:1003A00000F006F8DDF804E0DDE9022304B0704750
:1003B0002DE9F047089D8E4604468846002B4AD119
:1003C0008A42174662D9B2FA82F64EB1C6F12003CC
:1003D00001FA06F820FA03F3B74043EA0808B440EC
:1003E0004FEA174E1FFA87FCB8FBFEF1230C0EFBF9
:1003F000118843EA084301FB0CF29A4209D9FB1821
:1004000001F1FF3080F0EA809A4240F2E780023941
:100410003B449A1AA3B2B2FBFEF00EFB102243EA51
:10042000024300FB0CFC9C4509D9FB1800F1FF328C
:1004300080F0D6809C4540F2D3803B44023840EAAD
:100440000140A3EB0C0300211DB1F3400022C5E9DC
:100450000032BDE8F0878B4205D90DB1C5E9000136
:1004600000210846F5E7B3FA83F1002946D1734528
:1004700002D3824200F20581841A6EEB030201204E
:100480009046002DE5D0C5E90048E2E7002A00F0DB
:100490009080B2FA82F6002E40F0A4808A1A030CF3
:1004A0004FEA174E80B2BCB20121B2FBFEFC0EFB3C
:1004B0001C2243EA024304FB0CF29A4207D9FB18C0
:1004C0000CF1FF3802D29A4200F2E080C4469B1A37
:1004D000B3FBFEF20EFB123340EA034302FB04F4CB
:1004E0009C4207D9FB1802F1FF3002D29C4200F275
:1004F000CA8002461B1B42EA0C40A5E7C1F1200658
:100500008B4022FA06F71F430EFA01F420FA06F395
:100510002EFA06FE4FEA1749234300FA01F81FFAA4
:1005200087FCBEFBF9F01C0C09FB10EE44EA0E44FC
:1005300000FB0CFEA64502FA01F209D93C1900F1B4
:10054000FF3A80F09C80A64540F2998002383C44F6
:10055000A4EB0E041FFA83FEB4FBF9F309FB13446A
:100560004EEA044403FB0CFCA44508D93C1903F1F2
:10057000FF3E80F08280A4457FD9023B3C4443EAA1
:100580000040A4EB0C04A0FB02EC64457346E1467A
:1005900062D35FD05DB1B8EB030264EB090404FAE7
:1005A00006F622FA01F31E43CC40C5E9006400219F
:1005B0004FE7B1FBF2FC010C41EA0E4180B240EA88
:1005C00001423B4638463C46B846BE462026B1FB73
:1005D000F7F1A2EB080241EA0C4166E7014618E791
:1005E00010462CE7C6F120022EFA02F3B740B140C4
:1005F00020FA02F24FEA174E0A43B3FBFEF8BCB2F0
:100600000EFB1833110C41EA034108FB04F9B0401A
:1006100089454FEA104380B23ED9791808F1FF3C72
:1006200001D289451FD8A1EB0901B1FBFEF909FBF5
:1006300004F80EFB191192B242EA0142424529D256
:10064000BA1809F1FF31C4D24245C2D2A9F1020160
:100650003A44BEE7F0459DD2BEEB02036CEB070CBB
:100660000138E14696E7A7EB09094944A8F1020CD5
:10067000B1FBFEF909FB04F8DBE773467FE7504660
:1006800066E70846FDE63B44023A33E7ACF1020C6C
:100690003B441CE749469CE7A1EB0901C446B1FB7A
:1006A000FEF909FB04F8C4E7704700BF374BD3F8E5
:1006B000882042F47002C3F888201A6942F01002C0
:1006C0001A61334B1B6803F00F03062B06D8304A20
:1006D000136823F00F0343F0070313602D4B1A68D0
:1006E00042F001021A6000221A6119682A4A0A407F
:1006F0001A60274B1B6813F0080F06D0244A1368B2
:1007000023F00F0343F007031360224B00229A618A
:10071000DA611A62214999622149D9622149196332
:100720005A639963DA6319645A64196821F4802161
:1007300019601A664FF0B042D2F8E43043F48043B7
:10074000C2F8E430184B1B686FF30F03B3F1005F7E
:1007500003D2164B0122C3F808210E4BD3F8D43034
:1007600013F4805F10D10B4BD3F8D42042F48052A5
:10077000C3F8D4200E4A43F2D2011160D3F8D4203A
:1007800022F48052C3F8D420704700BF00ED00E08F
:1007900000200052004402587FEDF6EA00020202F7
:1007A0000000FF01800201010010005C0080005188
:1007B00000400052054AD36823F00203D360034B84
:1007C0005B6813F4005FFAD0704700BF004802581E
:1007D00030B58BB0002405940694079408940994CE
:1007E0002E4BD3F8E02042F00202C3F8E020D3F809
:1007F000E02002F002020092009AD3F8E02042F0DA
:100800000102C3F8E020D3F8E02002F001020192D7
:10081000019AD3F8E02042F00402C3F8E020D3F8B4
:10082000E02002F004020292029AD3F8E02042F49F
:100830008072C3F8E020D3F8E02002F480720392C3
:10084000039AD3F8E02042F08002C3F8E020D3F806
:10085000E03003F080030493049B114D22464FF4D3
:100860000061284601F090F84FF48073059302234D
:10087000069307940894099405A9284600F074FF8C
:100880004FF400630593012306930794089405A988
:10089000284600F069FF0BB030BD00BF004402588D
:1008A0000000025872B6FEE708B51548154B036004
:1008B0004FF4E133436000238360C36003610C2283
:1008C00042618361C36103624362836204F02DFA73
:1008D00070B900210A4804F0A0FA58B9002108486C
:1008E00004F0C0FA40B9064804F078FA30B908BDFF
:1008F000FFF7D8FFFFF7D6FFFFF7D4FFFFF7D2FFD0
:10090000840100240010014008B50848084B03602A
:10091000002303714371436183610323036200F089
:100920007DFC00B908BDFFF7BDFF00BF1802002421
:10093000004C025800B59DB04C22002109A806F0D9
:1009400045FF2022002101A806F040FF042001F00D
:100950008FFE00230093284BDA6A22F00102DA624C
:10096000DB6A03F001030093244B9A6942F440428E
:100970009A619B6903F440430093009B1F4B9B6962
:1009800013F4005FFAD00B2309934FF480330A93DA
:1009900001230C9340220D920E9302231293139382
:1009A000052214923021159116931792189308235B
:1009B000199300231A931B9309A801F0ABFEB0B959
:1009C0003F23019300210291039104910591069127
:1009D0000791089101A802F043FB50B94FF480221F
:1009E0000021084602F0EEF91DB05DF804FBFFF7A8
:1009F00059FFFFF757FF00BF000400580048025896
:100A000000B5B3B0C8220021684606F0DFFE4FF4FF
:100A100000220023CDE90023022302930C2203923B
:100A2000049305930693C0230793202308936846F5
:100A300002F0AEFD10B933B05DF804FBFFF732FFF2
:100A400000B583B0464806F0D7FD464806F0D4FD11
:100A5000454B464A13601A68454B9A4206D0454BAF
:100A60001A68454B1340B3F1105F06D03F4B1B682B
:100A700000221A604FF6FF730BE03E4A53683F496D
:100A80000B603F490B60126882F308889847EDE7D6
:100A900013463C4A126812F4004F03D05A1E002B32
:100AA000F6DC1346002B1CDB00F0E4FAFFF742FFF4
:100AB000FFF7A6FF334BD3F8E02042F00072C3F8F3
:100AC000E020D3F8E03003F000730193019B002095
:100AD00000F060FF0021084600F06CFF4FF6FF7346
:100AE00002E0FFF7DFFE1346264A126812F4004FB9
:100AF00003D15A1E002BF6DC1346002B16DBFFF742
:100B000067FEFFF7D1FE06F05BF9FFF7FDFE04F08C
:100B10001BFF00F0FFFB1C4806F06EFD01221B4985
:100B20001B4804F012FF18B1FFF7BCFEFFF7BAFE36
:100B30001849174804F020FF08B1FFF7B3FE164923
:100B4000134806F0EFF808B1FFF7ACFE104804F0C8
:100B500033FF08B1FFF7A6FE01F0D4FDFEE700BFAA
:100B60009C810008D4810008FCFF07248001002438
:100B7000EFBEADDE000004080000F82F780100246D
:100B80007C01002400440258EC810008C4000024C9
:100B900064030024540000240800002482B0074BA2
:100BA000D3F8F42042F00202C3F8F420D3F8F43072
:100BB00003F002030193019B02B070470044025806
:100BC00002680A4B9A4200D0704782B0A3F50063D6
:100BD000D3F8E02042F40022C3F8E020D3F8E0305C
:100BE00003F400230193019B02B07047004C0258AC
:100BF00010B5BAB00446002135913691379138913D
:100C00003991C82202A806F0E1FD22681B4B9A42E6
:100C100001D03AB010BD01220023CDE9022302A881
:100C200002F0B6FC38BB164BD3F8F02042F01002AD
:100C3000C3F8F020D3F8F02002F010020092009ADE
:100C4000D3F8E02042F00102C3F8E020D3F8E0300E
:100C500003F001030193019B4FF4C063359302231A
:100C600036930023379338930723399335A90548E2
:100C700000F07AFDCDE7FFF715FED4E70010014044
:100C80000044025800000258FEE7FEE7FEE7FEE7D8
:100C9000FEE770477047704708B500F019FA08BDC5
:100CA00008B5024801F0A4F908BD00BF640C002497
:100CB0004FF0E022D2F8FC3D43F08073C2F8FC3DD7
:100CC0004FF06042D2F8003E43F00103C2F8003E0C
:100CD0004FF060431B6813F0010FF9D04FF06043F1
:100CE0001860704770B50C461646002506E0AFF355
:100CF0000080214601F8010B01350C46B542F6DBB8
:100D0000304670BD70B50C461646002504E014F858
:100D1000010BFFF7CDFF0135B542F8DB304670BD62
:100D20004FF0FF3070474FF400534B600020704786
:100D3000012070470020704710B503460C4A0D494A
:100D40000D48006840B10C4800680344521A9342B1
:100D500006D8094A136010BD0748084C0460F2E742
:100D600006F092FD0C2303604FF0FF30F3E700BF65
:100D7000FCFF0724000400003C0200249812002419
:100D8000034608464FF0000C94450AD200B513F80C
:100D900001EB00F80CE00CF1010C9445F7D35DF881
:100DA00004FB7047012906D032235370002393704F
:100DB000D370002070473223537000239370D37098
:100DC000F7E7000000F17842A0F10163B3F5003FBE
:100DD00028BFB2F5003F3DD3254A0244254B0344CA
:100DE000B3F5003F28BFB2F5003F35D3224A024495
:100DF000224B0344B3F5003F28BFB2F5003F2DD38B
:100E00001F4A02441F4B0344B3F5003F28BFB2F50D
:100E1000003F25D31C4A02441C4B0344B3F5003F5A
:100E200028BFB2F5003F1DD3194A0244194B0344B1
:100E3000B3F5003F28BFB2F5003F15D3164A024470
:100E4000164B0344B3F5003F28BFB2F5003F0DD267
:100E5000062070470020704701207047022070472D
:100E60000320704704207047052070470720704713
:100E70000000FEF70000EEF70000FCF70000ECF7C2
:100E80000000FAF70000EAF70000F8F70000E8F7C2
:100E90000000F6F70000E6F70000F4F70000E4F7C2
:100EA00008B500F037FA002008BD08B500F060FA78
:100EB000002008BD30B587B000250595FFF782FFFB
:100EC0000095202304930123019302900393BFF321
:100ED0004F8FBFF36F8F154C636923F40033636149
:100EE000C4F85052BFF34F8FBFF36F8F05A9684608
:100EF00000F0A4FB636913F4003F11D1BFF34F8FDF
:100F0000BFF36F8FC4F85052BFF34F8FBFF36F8F93
:100F1000626942F400326261BFF34F8FBFF36F8F9B
:100F200008B907B030BD0120FBE700BF00ED00E0CD
:100F30002DE9F84380460F469146BFF34F8FBFF32C
:100F40006F8F214B5A6922F400325A610024C3F892
:100F50005042BFF34F8FBFF36F8F00E020344C45FA
:100F600013D23D1908EB040632462946012000F051
:100F700097FA20BB58F80400726839596B689A4296
:100F800008BF8842EAD002201AE00F4B5B6913F4D5
:100F9000003F17D1BFF34F8FBFF36F8F0A4B002075
:100FA000C3F85002BFF34F8FBFF36F8F5A6942F4FB
:100FB00000325A61BFF34F8FBFF36F8F00E0012003
:100FC000BDE8F8830020FBE700ED00E0DFF838D053
:100FD000FFF7F0FBFFF76AFB0C480D490D4A0023B1
:100FE00002E0D458C4500433C4188C42F9D30A4ADE
:100FF0000A4C002301E013600432A242FBD306F046
:1010000049FCFFF71DFD7047FCFF0724000000248A
:101010005C010024708300085C0100249412002409
:10102000FEE70000104B1B780BB90120704710B58C
:1010300004464FF47A70B0FBF3F30C4A1068B0FB2F
:10104000F3F000F0D7F868B90F2C01D901200AE0BD
:10105000002221464FF0FF3000F0B8F8044B1C602E
:10106000002000E0012010BD240000240400002422
:101070002800002410B5032000F096F801F0F4FEDB
:101080000F498B69C3F303230E4AD35C03F01F039C
:10109000D8408B6903F00F03D35C03F01F0320FAE1
:1010A00003F3094A1360094B18600020FFF7BAFFE9
:1010B00010B10124204610BD0446FFF76FFDF9E78B
:1010C000004402588C810008000000240400002421
:1010D000034B1B78034A11680B441360704700BF31
:1010E0002400002440020024014B1868704700BF10
:1010F0004002002438B50446FFF7F6FF0546B4F178
:10110000FF3F02D0044B1B781C44FFF7EDFF401B50
:10111000A042FAD338BD00BF24000024014B186858
:10112000000C70470010005C002807DB00F01F0275
:10113000400901239340024A42F82030704700BF23
:1011400000E100E0002804DB0901C9B2044B195496
:10115000704700F00F000901C9B2024B19547047E3
:1011600000E400E014ED00E000B500F00700C0F17D
:10117000070CBCF1040F28BF4FF0040C031D062B15
:101180000FD9C31E4FF0FF3E0EFA0CF021EA00010A
:1011900099400EFA03FE22EA0E0241EA02005DF8CF
:1011A00004FB0023EEE700000649CB6823F4E0636C
:1011B0001B041B0C000200F4E0600343024A1A43C4
:1011C000CA60704700ED00E00000FA0510B5044663
:1011D000054BD868C0F30220FFF7C6FF0146204642
:1011E000FFF7B0FF10BD00BF00ED00E008B5FFF74E
:1011F0009BFF08BD0138B0F1807F0BD24FF0E02398
:101200005861054AF02182F82310002098610722D6
:101210001A6170470120704700ED00E0002838D0C7
:1012200010B50446437F1BB30223637723791BBBAE
:101230002368194A5A612268936823F0180393605F
:10124000637913BB23684FF0FF321A6122689368F9
:1012500023F0600361690B4393602268936823F075
:101260008003A1690B43936001236377002010BDC5
:101270000377FFF7A5FCD7E7E268A168204600F0F6
:101280000DF80028DCD00120F1E7236822691A61FB
:10129000DCE70120704700BFB71DC10411F0010F4A
:1012A00030D010B41F231C46013B34B103F01F0C97
:1012B00021FA0CFC1CF0010FF5D0182A24D8DFE825
:1012C00002F00F232323232323231D23232323235C
:1012D000232319232323232323230D00062B17D88D
:1012E0000368596101688B6823F0180313438B600E
:1012F00000200AE0072BF3D9012006E00F2BEFD9DD
:10130000012002E00120704701205DF8044B704786
:101310000120FAE7144BDB6813F0010F09D0124BE0
:10132000124A5A6002F188325A60DB6813F0010FEA
:1013300014D10D4BD3F80C3113F0010F10D00A4B20
:101340000A4AC3F8042102F18832C3F80421D3F811
:101350000C3113F0010F05D10020704701207047B8
:10136000002070470120704700200052230167458C
:101370000D4BDA6842F00102DA60DB6813F0010F0E
:101380000DD0094BD3F80C2142F00102C3F80C2117
:10139000D3F80C3113F0010F03D000207047012067
:1013A00070470120704700BF00200052F8B5054685
:1013B0000E46FFF799FE0746022E09D0042414E0DA
:1013C000FFF792FEC01BA8425DD875B903204AE022
:1013D000304C0AE0304B1B6934EA03030CBF012395
:1013E00000237BB1B5F1FF3FEAD1002CF2DA2A4BA2
:1013F000D3F8103124EA030333F000430CBF012378
:101400000023EEE7012E1CD0234BD3F8103123F03C
:10141000684323F480135B0C5B0443F0004333F018
:10142000004117D1012E23D01B4BD3F8103113F4F8
:10143000803F2CD0184B4FF48032C3F81421002089
:1014400011E0154B1B6923F0684323F480135B0CF8
:101450005B04E4E7114882691A438261002B03DBD5
:101460000D4A53610120F8BD0B4BC3F81411F9E785
:10147000094B1B6913F4803F07D0074B4FF48032B0
:101480005A610020EFE70320EDE70020EBE70020A2
:10149000E9E700BF0400008000200052440200245D
:1014A0002D4B1B7D012B53D070B50D4614462A4B96
:1014B00001221A7501F17843B3F5801F3AD3A1F1E7
:1014C0000161B1F5801F45D20226234B00229A61AB
:1014D00031464CF25030FFF769FF38BB012E2BD05C
:1014E0001E4AD2F80C3143F00203C2F80C31BFF3AC
:1014F0006F8FBFF34F8F082354F8042B45F8042B4C
:10150000013B13F0FF03F7D1BFF36F8FBFF34F8F92
:1015100031464CF25030FFF749FF012E12D00F4AEE
:10152000D2F80C3123F00203C2F80C310A4B00222E
:101530001A7570BD0126C8E7084AD36843F0020354
:10154000D360D4E7054AD36823F00203D360EDE704
:10155000022070470120ECE74402002400200052E2
:1015600001F00303032B24D011F0010F0BD01D4B0E
:10157000DA6822F03002DA60DA680243DA60DA68A8
:1015800042F08802DA6011F0020F11D0154BD3F847
:101590000C2122F03002C3F80C21D3F80C210243B5
:1015A000C3F80C21D3F80C2142F08802C3F80C21B7
:1015B00070470C4BDA6822F03002DA60D3F80C2165
:1015C00022F03002C3F80C21DA680243DA60D3F863
:1015D0000C210243C3F80C219A6942F010029A616F
:1015E000704700BF0020005210B411F0010F0CD062
:1015F000114CE36823F4E663E360E36842EA002CFD
:1016000043EA0C0343F08403E36011F0020F0FD0B0
:101610000949D1F80C3123F4E663C1F80C31D1F853
:101620000C3142EA0022134343F08403C1F80C3129
:101630005DF8044B704700BF00200052F8B5474BDF
:101640001B7D012B00F0888004460F46434B01228E
:101650001A7500229A61436813F0010F0DD100251D
:10166000636813F0020F12D1CDB92368012B1BD090
:101670004FF0FF333B60A6684CE001214CF2503044
:10168000FFF794FE05460028EAD00125E8E702218D
:101690004CF25030FFF78AFE0028E5D001252F4B91
:1016A00000221A752846F8BD61682069FFF758FFC7
:1016B000636813F0010F12D1636813F0020FEED0CC
:1016C00002214CF25030FFF771FE00B10125244A8F
:1016D000D2F80C3123F00803C2F80C31DFE7012106
:1016E0004CF25030FFF762FE00B101251C4AD3686E
:1016F00023F00803D360DFE701214CF25030FFF7FD
:1017000055FE0546164AD168164B0B40D3600FE0D4
:1017100005BB0136E368A2681344B342BFD922690E
:1017200061683046FFF760FF636813F0010FE3D193
:10173000636813F0020FEBD002214CF25030FFF738
:1017400035FE0546064AD2F80C11064B0B40C2F88E
:101750000C31DDE73E60A2E70225A3E74402002446
:1017600000200052FBF8FFFFF0B583B000236BE0D0
:1017700085685E000324B44025EA0405CC68B440C3
:101780002C438460456825EA0C054C68C4F30014BA
:101790009C402C43446069E0DD08083550F8254042
:1017A00003F0070C4FEA8C0C4FF00F0E0EFA0CFEF4
:1017B00024EA0E0E0C6904FA0CF444EA0E0440F814
:1017C00025406BE0092400E0002404FA0EF42C43C9
:1017D0000CF1020C694D45F82C404FF0B0442568DF
:1017E000D44325EA02064F6817F4801F01D042EA6D
:1017F00005064FF0B0452E606D6804EA05064F6897
:1018000017F4001F01D042EA05064FF0B0456E60A4
:10181000D5F8845004EA05064F6817F4003F01D05C
:1018200042EA05064FF0B045C5F88460D5F880500F
:101830002C404E6816F4803F01D042EA05044FF078
:10184000B042C2F8804001330A6832FA03F400F073
:1018500092804FF0010C0CFA03FC1CEA0202F2D059
:101860004C6804F00304013C012C81D94C6804F05D
:101870000304032C0CD0C4685D004FF0030C0CFA79
:1018800005FC24EA0C0C8C68AC4044EA0C04C460EF
:101890004C6804F00304022C3FF47EAF04684FEA66
:1018A000430E4FF0030C0CFA0EFC24EA0C0C4C68AF
:1018B00004F0030404FA0EF444EA0C0404604C68D7
:1018C00014F4403FBFD02E4CD4F8F45045F002053C
:1018D000C4F8F450D4F8F44004F002040194019CDC
:1018E0004FEA930C0CF10205244C54F8255003F0F8
:1018F000030E4FEA8E0E0F2404FA0EF425EA0405B7
:10190000204CA0423FF460AF04F58064A04222D096
:1019100004F58064A04220D004F58064A0421ED06B
:1019200004F58064A0421CD004F58064A0421AD063
:1019300004F58064A04218D004F58064A04216D05B
:1019400004F58064A04214D004F58064A0423FF402
:1019500039AF0A2439E7012437E7022435E70324A5
:1019600033E7042431E705242FE706242DE7072475
:101970002BE7082429E703B0F0BD00BF000400589E
:1019800000440258000002580AB1816170470904FE
:10199000816170472030054B53F82020044B9A4258
:1019A00001D0012070470020704700BF006402583A
:1019B0000003008041F44071014B43F82010704750
:1019C000006402582DE9F04383B0D0F8008001EBA9
:1019D000C10300EB83039A6A5B6A9A4254D80746B4
:1019E0000C469B1A01EBC10200EB8202D2699A42BB
:1019F00000D31A4602F103094FEA990915E006F1EE
:101A000003094FEA9909BB7904EBC40507EB850587
:101A1000296A0093B3B2E2B2404603F010FD2B6A8C
:101A200033442B62AB6A3344AB6208EB441303F5D7
:101A300010639B699BB24B4512D304EBC40307EBC5
:101A400083039A6A5B6A9A420AD24BB19B1A04EBEF
:101A5000C40207EB8202D6699E42D0D31E46CEE76F
:101A600004EBC40307EB83077A6ABB6A9A420FD878
:101A700004F00F040122A240D8F8343823EA02030C
:101A8000C8F83438002000E0012003B0BDE8F0833E
:101A90000020FAE730B583B000287AD0044690F8E9
:101AA0009534ABB1032384F89534206803F0EEFA43
:101AB000237C8DF80030231D0ECB206803F01CFA28
:101AC00058B1022384F895340125284603B030BD6F
:101AD00080F8943405F046FAE4E70021206803F02A
:101AE000C4FE024608B9034617E0022384F8953481
:101AF0000125EAE703EBC30104EB810101204875EE
:101B00000B75CB8500200876C861086203EBC30122
:101B100004EB810148620133DBB220799842E9D8B5
:101B200016E002EBC20304EB8303002183F8551295
:101B300083F8542283F85812C3F85C12C3F8601279
:101B400002EBC20304EB8303C3F864120132D2B286
:101B50009042E6D8237C8DF80030231D0ECB206800
:101B600003F0EAFA054658B900236374012384F8A8
:101B70009534237B012B08D0206803F035FEA4E7C1
:101B8000022384F8953401259FE7204600F05AFD92
:101B9000F2E7012599E7036890F89424012A1AD006
:101BA00010B50446012280F89424DA6812F0400F40
:101BB00002D0427B012A09D0206803F061FA206834
:101BC00003F004FE002084F8940410BD9A6B42F4E4
:101BD00080329A63F0E70220704738B5056890F8C4
:101BE0009434012B1DD00446012380F894342846F8
:101BF00003F04CFA206803F0F7FD1021206803F091
:101C00004BFAEB6813F0400F02D0637B012B03D03B
:101C1000002084F8940438BDAB6B23F48033AB63AD
:101C2000F6E70220F7E7000070B504460D460068AD
:101C3000066C00EB411303F530639A68A179012922
:101C400011D038498E4256D03DB905EBC50304EB9F
:101C50008303D3F86432002B5ED0E9B2204605F04E
:101C600053FA002070BD12F0080F09D02E498E42A1
:101C7000F7D912F4004FF4D04FF400429A60F0E725
:101C800012F0200F02D020229A60EAE712F0280F0B
:101C9000E7D125498E4206D912F4004F03D04FF404
:101CA00000429A60DDE705EBC50204EB8202D2F840
:101CB00074121B69C3F31203CB1AC2F868327DB9E0
:101CC00005EBC50204EB8202D2F864226AB105EB8F
:101CD000C50204EB8202D2F860121944C2F8601205
:101CE000E9B2204605F010FABBE704F29C4201215C
:101CF00003F0FAFDF4E712F4004F03D04FF4004272
:101D00009A60AEE712F0200F01D020229A60E9B26B
:101D1000204605F0F9F9A4E704F29C42002103F003
:101D2000E3FD9AE70A31544F0A30544F38B5044660
:101D300003681D6C03EB4113D3F8081B0E4A954250
:101D400007D903F5306311F4004F02D04FF400427D
:101D50009A60204605F0D0F9074B9D4202D9A3793D
:101D6000012B01D0002038BD04F29C4201212068E3
:101D700003F0BAFDF6E700BF0A30544F90F89434F0
:101D8000012B0CD010B50446012380F89434417423
:101D9000006803F00BFD002084F8940410BD0220BD
:101DA000704738B505468C4611F0800F2BD101F0F5
:101DB0000F0E0EEBCE04A40004F514740444211D90
:101DC0000EEBCE0E00EB8E0E00208EF855020CF0BE
:101DD0000F0C81F800C0C2F30A028A600B714A78C6
:101DE0000AB1A1F81AC0022B1CD095F89434012B2B
:101DF0001BD0012385F89434286803F075FA00207D
:101E000085F8940438BD01F00F0000EBC001890093
:101E100010312944043100EBC00005EB800001249F
:101E20004475D4E700234B71DFE70220EAE710B5E1
:101E3000144601F00F0C0CEBCC01890001F5147174
:101E4000014404310CEBCC0E00EB8E0ECEF8602278
:101E5000CEF864320023CEF868328EF855328EF810
:101E600054C28279012A04D0006803F0FFFA0020EE
:101E700010BDCEF87042F7E710B5144601F00F0C14
:101E80000CEBCC0189001031014404310CEBCC0E79
:101E900000EB8E0ECEF82020CEF824300023CEF8B2
:101EA000283001238EF815308EF814C082799A42BA
:101EB00004D0006803F0DAFA002010BDCEF83040FC
:101EC000F7E738B501F00F050279AA4238D3044686
:101ED0000B4611F0800F1FD101EBC101890001F504
:101EE00014710144043103EBC30300EB83030022AC
:101EF00083F8552201238B700D7094F89434012BD4
:101F000020D0012384F89434206803F0F4FB85B1D9
:101F1000002084F8940438BD05EBC5018900103118
:101F20000144043105EBC50300EB830301225A751C
:101F3000E0E704F29C42A179206803F0D5FCE7E7D2
:101F40000120E8E70220E6E701F00F0302799A4258
:101F500030D310B5044611F0800F1ED103EBC3013E
:101F6000890001F514710144043103EBC30200EB55
:101F70008202002082F8550200228A700B7094F8C9
:101F80009434012B18D0012384F89434206803F092
:101F9000DFFB002084F8940410BD03EBC30189002B
:101FA00010310144043103EBC30200EB8202012033
:101FB0005075E1E7012070470220EDE708B511F008
:101FC000800F0CD101F00F0101EBC101890001F577
:101FD000147101440431006803F0D2F908BD01F026
:101FE0000F0101EBC1018900103101440431F2E716
:101FF0002DE9F04F83B004460568284603F031FC14
:1020000010B103B0BDE8F08F0646206803F0FAFB7C
:102010000028F6D005F50067BB68C3F30D23C4F8AC
:10202000D434206803F0EEFB10F0020F04D02268D5
:10203000536903F002035361206803F0E3FB10F0DF
:10204000100F16D02268936923F010039361D5F81E
:10205000208008F00F0908F4F013B3F5802F6AD040
:10206000B3F5402F00F08D802268936943F0100390
:102070009361206803F0C6FB10F4002F40F09380BA
:10208000206803F0BFFB10F4802F40F0FC80206834
:1020900003F0B8FB0028C0F27D81206803F0B2FB9A
:1020A00010F4006F09D0BB6813F0010F40F08A8173
:1020B0002268536903F400635361206803F0A2FBB4
:1020C00010F0006F15D02268536903F0006353616C
:1020D00094F8CC34002B40F07981012184F8CC14A1
:1020E00023685B6DC3F38303C4F8D034204600F04B
:1020F000BDFA206803F086FB10F4805F40F06A812F
:10210000206803F07FFB10F4005F40F0B681206888
:1021100003F078FB10F0080F40F0C781206803F04F
:1021200071FB10F0800F00F0DA81AB6923F08003BF
:10213000AB610126C3E147F6F07318EA030F93D0B1
:102140004FEA181A4FEAC903019309EBC90B04EBD4
:102150008B0BC8F30A12DBF86012284603F0A8FACA
:10216000DBF86032CAF30A0A5344CBF86032DBF87A
:102170006832019A4A4404EB82025344C2F868323E
:1021800072E7082204F29C41284603F091FA09EB19
:10219000C90304EB8303D3F86822C8F30A18424446
:1021A000C3F8682260E7206803F030FB8046B14640
:1021B00035E005EB49130122C3F8082B49462046B8
:1021C000FFF732FD3CE005EB49130822C3F8082B6A
:1021D00049462046FFF7AAFD35E009EBC90304EBA9
:1021E000830393F85732012B41D005EB49130222A8
:1021F000C3F8082B1AF0200F04D005EB4913202256
:10220000C3F8082B1AF4005F05D005EB49134FF40F
:102210000052C3F8082B09F101094FEA5808B8F138
:10222000000F3FF42DAF18F0010FF4D05FFA89FBD7
:102230005946206803F0FAFA824610F0010FB8D12F
:102240001AF0080FBFD11AF0100F04D005EB491394
:102250001022C3F8082B1AF0020FCBD06B6913F0D1
:10226000800FBAD07B6843F480637B60B5E709EBED
:10227000C90304EB8303002283F857225946204602
:1022800004F092FFB1E7206803F0C8FA8046B14637
:1022900025E05946204604F043FF1AF0080F04D009
:1022A00005EB49130822C3F808291AF0100F04D0CF
:1022B00005EB49131022C3F808291AF0400F04D087
:1022C00005EB49134022C3F808291AF0020F40D148
:1022D0001AF0800F59D109F101094FEA5808B8F1F5
:1022E000000F3FF4D4AE18F0010FF4D05FFA89FB71
:1022F0005946206803F0A3FA824610F0010FCCD0B3
:1023000009F00F02012101FA02F27B6B23EA0203BA
:102310007B6305EB4913C3F80819A3798B42B8D145
:1023200009EBC90304EB83031A6AD9690A441A62E8
:10233000B9F1000FADD109EBC90304EB83035B6A6C
:10234000002BA6D104F29C420121206803F0CCFAB4
:102350009FE74946284602F09FFE09EBC90304EBBC
:102360008303DB7D012B05D005EB49130222C3F863
:102370000829ADE709EBC90304EB83030022DA75F2
:102380005946204604F016FFEEE749462046FFF77F
:1023900019FBA0E77B6823F001037B6094F8CC3441
:1023A000012B08D0204604F0F9FE2268536903F09F
:1023B0000043536171E6002184F8CC14204600F0FC
:1023C00055F9F2E7204604F0D1FE71E6204604F00C
:1023D000CDFE8EE67B6823F001037B601021206830
:1023E00002F05AFE1AE005EB46134FF67F31C3F8B0
:1023F0000819D3F8002922F40012C3F80029C3F801
:10240000081BD3F8002B22F40012C3F8002BD3F8DA
:10241000002B42F00062C3F8002B01362379B3424F
:10242000E1D8FB6943F00113FB61E37BDBB1D7F833
:10243000843043F00B03C7F884307B6C43F00B030C
:102440007B64D5F8003823F4FE63C5F8003804F245
:102450009C42A179206803F047FA2268536903F48B
:10246000805353614CE67A6942F22B0313437B613C
:102470003B6943F00B033B61E3E7206803F026FA76
:10248000206802F01FFFE071266800F033FF01466C
:10249000E279304602F082FD204604F052FE2268C6
:1024A000536903F40053536131E6204604F043FEC0
:1024B0002268536903F0080353612FE6013623793C
:1024C000B3420CD906EBC60304EB830393F85732EF
:1024D000012BF3D1F1B22046FFF770FDEEE7206843
:1024E00003F090F910F4801F25D1206803F08AF9D9
:1024F00010F4001F58D0012326E001362379B3429F
:102500001BD905EB4613D3F8002906EBC60304EBF1
:1025100083031B7E012BF0D1002AEEDA06EBC60303
:1025200004EB83030122DA7566F07F01C9B220460D
:10253000FFF744FDE1E70126E0E72268536903F471
:1025400080135361D1E7013322799A4227D905EBF1
:102550004312D2F8001B03EBC30204EB820292F891
:102560005822012AEFD10029EDDAD4F8D42482EAE6
:10257000114212F0010FE6D103EBC30204EB820219
:10258000012182F85712AA6942F08002AA616A69A1
:1025900012F0800FD7D17B6843F400737B60226810
:1025A000536903F400135361206803F02BF910F012
:1025B000804F10D1206803F025F910F0040F3FF48C
:1025C00020AD23685D6815F0040F0DD122685368B3
:1025D0002B43536015E5204604F0F2FD2268536951
:1025E00003F080435361E5E7204604F0EFFDEDE79B
:1025F00010B40468606A31B940EA0240A062002069
:102600005DF8044B70478C46A36A00EB134000232F
:1026100008E003F1400104EB8101496800EB11403F
:102620000133DBB20CF1FF318B42F2D340EA0240BE
:102630000CF13F0104EB81046060E0E7036859623C
:1026400000207047034602680121C0F8D81400201A
:1026500083F8CC04936943F000639361516D024B9E
:102660000B435365704700BF030000107047000024
:1026700038B50446224BDB6803F00703062B07D06E
:102680001F4BDB6803F03F03834236D0012038BD87
:102690001B4AD36823F03F030343D360FEF724FDB6
:1026A0000546174B5B6813F4005F07D1FEF71CFD6E
:1026B000431BB3F57A7FF4D90120E8E72E2C18BF2D
:1026C0001E2C08D02D2C14BF002301231D2C02D05A
:1026D0000BB90020DBE7FEF707FD0446084BDB687B
:1026E00013F4803F07D1FEF7FFFC001BB0F57A7FA3
:1026F000F4D90120CBE70020C9E70020C7E700BFDD
:1027000000480258024AD36843F08073D360704790
:1027100000480258002800F0398338B504460368A1
:1027200013F0010F25D0944A136903F03803926A1D
:10273000102B15D0182B0FD06368B3F5803F3FD016
:10274000002B53D18C4B1A6822F480321A601A681D
:1027500022F480221A6038E002F00302022AEBD150
:10276000854B1B6813F4003F03D06368002B00F017
:102770000F83236813F0020F00F0A1807E4A1369D3
:10278000926A13F038035AD0182B55D0E368002B07
:1027900000F0DE8078490A6822F0190213430B60CA
:1027A000FEF7A2FC0546744B1B6813F0040F40F0C3
:1027B000AD80FEF799FC401B0228F4D90320EEE21D
:1027C0006D4A136843F48033136063682BB3FEF7DC
:1027D0008BFC0546684B1B6813F4003FC9D1FEF71C
:1027E00083FC401B6428F5D90320D8E2B3F5A02F61
:1027F00009D0614B1A6822F480321A601A6822F4F8
:1028000080221A60E1E75C4B1A6842F480221A6069
:102810001A6842F480321A60D7E7FEF765FC054675
:10282000554B1B6813F4003FA3D0FEF75DFC401B23
:102830006428F5D90320B2E212F0030FA6D14E4B63
:102840001B6813F0040F03D0E368002B00F0A28292
:10285000494A136823F01903E1680B431360FEF73C
:1028600043FC0546444B1B6813F0040F06D1FEF7EA
:102870003BFC401B0228F5D9032090E2FEF74EFCFA
:1028800041F20303984212D82269402A07D03A49FC
:102890004B6823F47C3343EA02334B600FE0364A43
:1028A000536823F47C3343F40033536007E0324A27
:1028B000536823F0FE43216943EA016353602368B0
:1028C00013F0100F00F088802B4A136903F03803CF
:1028D000926A082B56D0182B50D0E369002B00F0D9
:1028E000B880254A136843F080031360FEF7FCFBB1
:1028F0000546214B1B6813F4807F40F08880FEF76B
:10290000F3FB401B0228F4D9032048E2FEF706FC43
:1029100041F20303984212D82269402A07D016498F
:102920004B6823F47C3343EA02334B60C7E7124A17
:10293000536823F47C3343F400335360BFE70E4AFB
:10294000536823F0FE43216943EA01635360B6E70D
:10295000094A136823F001031360FEF7C5FB05461F
:10296000054B1B6813F0040FA9D0FEF7BDFB401BFD
:102970000228F5D9032012E20044025802F00302B3
:10298000012AAAD1A14B1B6813F4807F03D0E3690D
:10299000802B40F00182FEF7C1FB41F20303984215
:1029A00012D8226A202A07D098494B6823F0F843AE
:1029B00043EA82634B600FE0944A536823F0F84384
:1029C00043F08043536007E0904AD36823F07C5380
:1029D000216A43EA0163D360236813F0080F60D0D3
:1029E0006369002B49D0894A536F43F00103536751
:1029F000FEF77AFB0546854B5B6F13F0020F50D153
:102A0000FEF772FB401B0228F5D90320C7E1FEF751
:102A100085FB41F20303984212D8226A202A07D08C
:102A20007A494B6823F0F84343EA82634B60D3E76B
:102A3000764A536823F0F84343F080435360CBE772
:102A4000724AD36823F07C53216A43EA0163D3605E
:102A5000C2E76E4A136823F080031360FEF744FB5D
:102A600005466A4B1B6813F4807FB5D0FEF73CFB2C
:102A7000401B0228F5D9032091E1644A536F23F0EB
:102A800001035367FEF730FB0546604B5B6F13F0A5
:102A9000020F06D0FEF728FB401B0228F5D90320C1
:102AA0007DE1236813F0200F29D0A3699BB1574A19
:102AB000136843F480531360FEF716FB0546534B2F
:102AC0001B6813F4005F1AD1FEF70EFB401B0228AF
:102AD000F5D9032063E14D4A136823F48053136052
:102AE000FEF702FB0546494B1B6813F4005F06D056
:102AF000FEF7FAFA401B0228F5D903204FE12368BC
:102B000013F0040F21D1636A002B00F047813F4A84
:102B1000126902F03802182A00F0EE80022B79D0F8
:102B20003A4A136823F080731360FEF7DDFA044617
:102B3000364B1B6813F0007F00F0DC80FEF7D4FA00
:102B4000001B0228F4D9032029E1314A136843F419
:102B500080731360FEF7C8FA05462D4B1B6813F40B
:102B6000807F06D1FEF7C0FA401B6428F5D9032008
:102B700015E1A368012B0AD00BBB244B1A6F22F07E
:102B800001021A671A6F22F004021A6704E01F4A52
:102B9000136F43F001031367A36833B3FEF7A4FA7E
:102BA00005461A4B1B6F13F0020FACD1FEF79CFACF
:102BB000401B41F288339842F3D90320EFE0052B04
:102BC00009D0124B1A6F22F001021A671A6F22F015
:102BD00004021A67E0E70D4B1A6F42F004021A670D
:102BE0001A6F42F001021A67D6E7FEF77DFA054632
:102BF000064B1B6F13F0020F85D0FEF775FA401BD2
:102C000041F288339842F3D90320C8E000440258C7
:102C100000480258694A136823F080731360FEF776
:102C200063FA0546654B1B6813F0007F06D0FEF77C
:102C30005BFA401B0228F5D90320B0E05F4B996A8C
:102C40005F4A0A40A16AE06A41EA00110A439A62B7
:102C5000226B013AC2F30802616B0139490289B261
:102C60000A43A16B0139090401F4FE010A43E16B37
:102C70000139090601F0FE410A431A63DA6A22F0BB
:102C80000102DA625A6B6FF3CF02A16C42EAC10211
:102C90005A63DA6A22F00C02216C0A43DA62DA6AB9
:102CA00022F00202616C0A43DA62DA6A42F480328C
:102CB000DA62DA6A42F40032DA62DA6A42F48022D4
:102CC000DA62DA6A42F00102DA621A6842F080726D
:102CD0001A60FEF709FA0446384B1B6813F0007FB0
:102CE00006D1FEF701FA001B0228F5D9032056E0B1
:102CF000002054E0002052E0304A916A106B012B12
:102D00004ED001F00303A26A93424BD1C1F30511E7
:102D1000E36A994248D1C0F30802236B013B9A420F
:102D200044D1C0F34622636B013B9A4240D1C0F3C9
:102D30000642A36B013B9A423CD1C0F30660E36BB1
:102D4000013B984238D11D4B5B6BC3F3CC03A26CA3
:102D50009A4201D1002022E0184AD36A23F00103ED
:102D6000D362FEF7C1F90546FEF7BEF9A842FBD0D3
:102D7000124A536B6FF3CF03A16C43EAC103536351
:102D8000D36A43F00103D362002008E001207047BA
:102D9000012004E0012002E0012000E0002038BD15
:102DA0000120FCE70120FAE70120F8E70120F6E71F
:102DB0000120F4E70120F2E70120F0E70044025887
:102DC0000CFCFFFF70B588B00C46154610BB234EB7
:102DD000D6F8E03043F00103C6F8E030D6F8E03032
:102DE00003F001030193019B4FF4807303930223CB
:102DF00004930323069300230593079303A918481C
:102E0000FEF7B2FC336923F0FE7325431D433561A1
:102E100008B070BD114ED6F8E03043F00403C6F898
:102E2000E030D6F8E03003F004030293029B4FF445
:102E30000073039302230493032306930023059353
:102E4000079303A90748FEF78FFC336923F07E43FD
:102E500044EAC5141C433461DAE700BF0044025859
:102E60000000025800080258754B1B6903F0380334
:102E7000102B00F0DE80182B0FD0002B40F0DB80F1
:102E80006F4B1B6813F0200F00F0D7806C4B1B6852
:102E9000C3F3C1036B48D840704710B4684B9A6ABB
:102EA00002F003029C6AC4F30510D96A01F0010123
:102EB0005B6BC3F3CC0301FB03F307EE903AF8EE30
:102EC000677A14F47C7F77D0012A4AD0022A76D020
:102ED000002A40F091805A4B1B6813F0200F23D03A
:102EE00057490A68C2F3C102564BD34007EE103A65
:102EF000F8EE476A07EE100AB8EE476A86EE867A61
:102F00000B6BC3F3080306EE903AF8EE666A9FED8A
:102F10004E6A67EE867A76EEA77AF7EE006A77EE6B
:102F2000A67A27EE277A38E007EE100AF8EE476A0D
:102F30009FED466A86EE267A414B1B6BC3F308036E
:102F400006EE903AF8EE666A9FED3F6A67EE867A83
:102F500076EEA77AF7EE006A77EEA67A27EE277A62
:102F60001BE007EE100AF8EE476A9FED396A86EE1D
:102F7000267A334B1B6BC3F3080306EE903AF8EE48
:102F8000666A9FED316A67EE867A76EEA77AF7EE8B
:102F9000006A77EEA67A27EE277A294B1B6BC3F3DC
:102FA0004623013307EE903AF8EE677AC7EE276AB8
:102FB000FCEEE67A17EE900A5DF8044B704707EED8
:102FC000100AF8EE476A9FED236A86EE267A1C4BBC
:102FD0001B6BC3F3080306EE903AF8EE666A9FEDAA
:102FE0001A6A67EE867A76EEA77AF7EE006A77EECF
:102FF000A67A27EE277AD0E707EE100AF8EE476A9E
:103000009FED136A86EE267A0D4B1B6BC3F3080304
:1030100006EE903AF8EE666A9FED0B6A67EE867AE6
:1030200076EEA77AF7EE006A77EEA67A27EE277A91
:10303000B3E709487047094870470248704700BF26
:10304000004402580090D003000000390024744C62
:103050000024744A20BCBE4B40787D0100093D002D
:10306000002800F0328170B50D4604469B4B1B686A
:1030700003F00F038B420BD2984A136823F00F031F
:103080000B431360136803F00F038B4240F01F8162
:10309000236813F0040F0CD02269914B9B6903F055
:1030A00070039A4205D98E498B6923F070031A4345
:1030B0008A61236813F0080F0CD06269884BDB69C2
:1030C00003F070039A4205D98549CB6923F0700358
:1030D0001A43CA61236813F0100F0CD0A269804B09
:1030E000DB6903F4E0639A4205D97D49CB6923F497
:1030F000E0631A43CA61236813F0200F0CD0E26921
:10310000774B1B6A03F070039A4205D974490B6A26
:1031100023F070031A430A62236813F0020F0CD0E5
:10312000E2686F4B9B6903F00F039A4205D96C4923
:103130008B6923F00F031A438A61236813F0010F90
:1031400041D0674A936923F47063A1680B4393618C
:103150006368022B0AD0032B27D0012B2CD0604AA6
:10316000126812F0040F06D10120ADE0126812F4CB
:10317000003F00F0AE805A490A6922F0070213436B
:103180000B61FDF7B1FF0646554B1B6903F0380391
:103190006268B3EBC20F16D0FDF7A6FF801B41F2A9
:1031A00088339842F0D903208EE04D4A126812F01D
:1031B000007FE0D1012087E0494A126812F4807F45
:1031C000D9D1012080E0236813F0020F0CD0E2680F
:1031D000434B9B6903F00F039A4205D240498B6928
:1031E00023F00F031A438A613C4B1B6803F00F0363
:1031F000AB420AD9394A136823F00F032B431360FB
:10320000136803F00F03AB4265D1236813F0040F7A
:103210000CD02269324B9B6903F070039A4205D2AD
:103220002F498B6923F070031A438A61236813F0D6
:10323000080F0CD062692A4BDB6903F070039A42D5
:1032400005D22749CB6923F070031A43CA6123686A
:1032500013F0100F0CD0A269214BDB6903F4E0637B
:103260009A4205D21E49CB6923F4E0631A43CA612E
:10327000236813F0200F0CD0E269194B1B6A03F08E
:1032800070039A4205D216490B6A23F070031A4361
:103290000A62FFF7E9FD12498B69C3F30323114A60
:1032A000D35C03F01F03D8408B6903F00F03D35C9A
:1032B00003F01F0320FA03F30B4A13600B4B186053
:1032C0000B4B1868FDF7AEFE70BD01207047012062
:1032D000FAE70120F8E70120F6E700BF00200052DE
:1032E000004402588C8100080000002404000024DF
:1032F0002800002408B5FFF7B7FD0B4A9369C3F314
:1033000003230A49CB5C03F01F0320FA03F39269FD
:1033100002F00F02885C00F01F0023FA00F0044A5C
:103320001060044A136008BD004402588C810008F4
:10333000000000240400002408B5FFF7DBFF054B64
:10334000DB69C3F30213044AD35C03F01F03D840C4
:1033500008BD00BF004402588C81000808B5FFF783
:10336000C9FF054BDB69C3F30223044AD35C03F0B6
:103370001F03D84008BD00BF004402588C810008DC
:10338000404B9B6A03F00303032B79D070B50546CD
:103390000E463C4A136823F080631360FDF7A4FED9
:1033A0000446384B1B6813F0006F06D0FDF79CFEF7
:1033B000031B022BF5D9032070BD324B9A6A22F40D
:1033C0007C32296842EA01329A626A68013AC2F3A1
:1033D0000802A9680139490289B20A43E96801393A
:1033E000090401F4FE010A4329690139090601F0C3
:1033F000FE410A439A63DA6A22F0C00269690A430D
:10340000DA62DA6A22F02002A9690A43DA62DA6A29
:1034100022F01002DA62DA6B6FF3CF02E96942EA56
:10342000C102DA63DA6A42F01002DA62C6B91A46F9
:10343000DB6A43F40023D362124A136843F08063CB
:103440001360FDF751FE04460E4B1B6813F0006F2E
:1034500014D1FDF749FE001B0228F5D90320ABE784
:10346000012E05D0074AD36A43F40013D362E3E781
:10347000044AD36A43F48013D362DDE700209BE75C
:103480000120704700440258404B9B6A03F003033D
:10349000032B79D070B505460E463C4A136823F0DD
:1034A00080531360FDF720FE0446384B1B6813F071
:1034B000005F06D0FDF718FE031B022BF5D9032091
:1034C00070BD324B9A6A22F07C72296842EA01523E
:1034D0009A626A68013AC2F30802A968013949028E
:1034E00089B20A43E9680139090401F4FE010A437B
:1034F00029690139090601F0FE410A431A64DA6AB2
:1035000022F4406269690A43DA62DA6A22F40072DC
:10351000A9690A43DA62DA6A22F48072DA625A6CC2
:103520006FF3CF02E96942EAC1025A64DA6A42F4EF
:103530008072DA62C6B91A46DB6A43F48003D3624A
:10354000124A136843F080531360FDF7CDFD044623
:103550000E4B1B6813F0005F14D1FDF7C5FD001B77
:103560000228F5D90320ABE7012E05D0074AD36A1C
:1035700043F08073D362E3E7044AD36A43F4000361
:10358000D362DDE700209BE701207047004402582A
:10359000F8B50446036813F0006F30D0C36EB3F57E
:1035A000001F26D00ED8ABB1B3F5801F07D1022182
:1035B0000830FFF7E5FE054695B12E4621E00126CD
:1035C00035461EE0B3F5401F01D1002508E0012675
:1035D000354616E0974AD36A43F40033D362002598
:1035E000944A136D23F44013E16E0B4313650026D8
:1035F00007E002212830FFF747FF0546DCE70026F9
:103600003546236813F4807F27D0E36D042B20D840
:10361000DFE803F0031118080800864AD36A43F470
:103620000033D362C5B9834A136D23F00703E16DFC
:103630000B43136511E0002104F10800FFF7A0FE21
:103640000546EFE7002104F12800FFF71DFF0546BE
:10365000E8E70126354600E02E46236813F4007F94
:1036600025D0236E802B37D00CD89BB1402B06D1B0
:10367000002104F10800FFF783FE05460FE0012654
:10368000354614E0C02B0AD0B3F5807F07D0012661
:1036900035460CE0674AD36A43F40033D36215BB66
:1036A000644A136D23F4E073216E0B4313652368A2
:1036B00013F4806F33D0D4F8AC30B3F5800F43D01F
:1036C00016D8F3B1B3F5001F0FD1002104F10800A3
:1036D000FFF756FE054619E0002104F12800FFF728
:1036E000D3FE0546DBE72E46E1E70126354616E028
:1036F000B3F5C00F0AD0B3F5000F07D00126354649
:103700000DE04C4AD36A43F40033D3621DBB494AEF
:10371000936D23F46003D4F8AC100B4393652368D6
:1037200013F4006F3CD0D4F8B030B3F1007F2FD049
:1037300016D8F3B1B3F1807F0FD1002104F1080056
:10374000FFF71EFE054619E0002104F12800FFF7EF
:103750009BFE0546DAE72E46E1E7012635461FE0E7
:10376000B3F1407F0AD0B3F1806F07D00126354610
:1037700016E0304AD36A43F40033D3627DB92D4A50
:10378000936D23F0E063D4F8B0100B43936507E02A
:10379000002104F12800FFF777FE0546EEE72E46EC
:1037A000236813F0007F13D0E36C202B2CD026D895
:1037B00033B1102B20D11F4AD36A43F40033D362B4
:1037C0004DBB1C4AD36C23F03003E16C0B43D36434
:1037D000236813F4805F3CD0636EB3F5005F54D070
:1037E0001ED84BB3B3F5805F17D1002104F1080058
:1037F000FFF7C6FD054624E001263546E8E7302BF5
:10380000DED001263546E3E7022104F10800FFF788
:10381000B7FD0546D4E72E46DAE70126354618E01F
:10382000B3F5405F0DD0B3F5804F0AD00126354681
:103830000FE000BF00440258834AD36A43F40033C8
:10384000D3624DBB804A136D23F4E043616E0B439A
:103850001365236813F4005F37D0A36EB3F5003F00
:103860002BD01ED843B1B3F5803F17D1012104F10D
:103870000800FFF785FD054635BB734A136D23F439
:10388000E023A16E0B4313651FE0002104F1280023
:10389000FFF7FAFD0546D4E72E46DAE7012635465E
:1038A00013E0B3F5802FE7D0B3F5A02FE4D0B3F544
:1038B000403FE1D00126354607E0012104F1280010
:1038C000FFF7E2FD0546D7E72E46236813F4804F45
:1038D00030D0D4F8B430B3F1005F23D016D843B160
:1038E000B3F1805F0FD1012104F10800FFF748FD1B
:1038F0000546F5B9544A936D23F0E043D4F8B4106B
:103900000B43936516E00126354613E0B3F1804F73
:10391000EFD0B3F1A04FECD0B3F1405FE9D0012676
:10392000354607E0012104F12800FFF7ADFD05460B
:10393000DFE72E46236813F0806F17D0236D43B165
:10394000B3F5807F0ED1012104F10800FFF718FDC7
:10395000054655B93C4AD36C23F48073216D0B4363
:10396000D36403E00126354600E02E46236813F4B5
:10397000004F17D0636FB3F1805F06D0B3F1005FE3
:103980001BD03BB1012635460CE02F4AD36A43F4E5
:103990000033D362C5B92C4A136D23F04053616FD5
:1039A0000B431365236813F0807F1CD0A36C032B9B
:1039B00045D8DFE803F0100B3D10012104F10800A9
:1039C000FFF7DEFC0546E5E72E46EBE71E4AD36A25
:1039D00043F40033D362ADBB1B4AD36C23F0030323
:1039E000A16C0B43D364236813F4800F2ED123689A
:1039F00013F0010F00F0A780D4F88030282B00F2DC
:103A0000A080DFE803F08D9E9E9E9E9E9E9E879ED8
:103A10009E9E9E9E9E9E979E9E9E9E9E9E9E8D9EDE
:103A20009E9E9E9E9E9E8D9E9E9E9E9E9E9E8D0076
:103A3000022104F10800FFF7A3FC0546CBE70126AD
:103A40003546D0E72E46CEE7004402585A4A13685E
:103A500043F480731360FDF747FB0746564B1B6822
:103A600013F4807F05D1FDF73FFBC01B6428F5D917
:103A70000325002D4AD1514B1B6FD4F8B820534079
:103A800013F4407F0CD04D4B1A6F22F44072196F23
:103A900041F480311967196F21F4803119671A6771
:103AA000D4F8B830B3F5807F15D08DBBD4F8B830DA
:103AB00003F44072B2F5407F1ED0404A136923F4EC
:103AC0007C5313613D490B6FD4F8B820C2F30B024D
:103AD00013430B678BE7FDF707FB0746374B1B6F5D
:103AE00013F0020FE1D1FDF7FFFAC01B41F288335A
:103AF0009842F3D90325D8E73048026922F47C5272
:103B00002F4901EA131313430361DBE72E466EE7E7
:103B10002E466CE7012104F10800FFF731FC054651
:103B2000EDB9264A536D23F03803D4F880100B43C7
:103B3000536508E0012104F12800FFF7A5FC0546C4
:103B4000EEE701263546236813F0020F17D0E36F26
:103B5000052B2CD8DFE803F00B05240B0B0B2E46AE
:103B6000F1E7012104F10800FFF70AFC05460DBB4F
:103B7000124A536D23F00703E16F0B43536523682B
:103B800013F0040F2FD0D4F89830052B00F20E81DB
:103B9000DFE813F01E00180005011E001E001E00C5
:103BA000012104F12800FFF76FFC0546DFE701263D
:103BB0003546E4E72E46E2E7004802580044025842
:103BC000CFFFFF00012104F10800FFF7D9FB0546F4
:103BD000002D40F0EE80B64A936D23F00703D4F831
:103BE00098100B439365236813F0200F1DD0D4F871
:103BF0009430B3F1005F00F0F08000F2DF804BB151
:103C0000B3F1805F40F0D780002104F10800FFF796
:103C1000B7FB0546002D40F0E780A54A536D23F021
:103C2000E043D4F894100B435365236813F0400F1E
:103C30001DD0D4F8A030B3F5006F00F0E98000F299
:103C4000D8804BB1B3F5806F40F0D080002104F1F3
:103C50000800FFF795FB0546002D40F0E080944AF0
:103C6000936D23F4E053D4F8A0100B4393652368BD
:103C700013F0800F1DD0D4F8A430B3F5804F00F0BE
:103C8000E28000F2D1804BB1B3F5005F40F0C98013
:103C9000002104F10800FFF773FB0546002D40F0FA
:103CA000D980834A936D23F46043D4F8A4100B4366
:103CB0009365236813F0080F0DD0D4F88830B3F55E
:103CC000805F00F0C9807A4A536D23F44053D4F8E2
:103CD00088100B435365236813F0100F0DD0D4F8F0
:103CE0009C30B3F5807F00F0C180714A936D23F45E
:103CF0004073D4F89C100B439365236813F4002F92
:103D00001CD0D4F8A830B3F5803F00F0B980B3F5EB
:103D1000003F08D0002B40F0BA80002104F10800D9
:103D2000FFF72EFB0546002D40F0B480604A936DEE
:103D300023F44033D4F8A8100B439365236813F49D
:103D4000802F1CD0D4F88C30B3F5001F00F0A48075
:103D5000B3F5401F08D0B3F5801F40F0A480544A4B
:103D6000D36A43F40033D362002D40F09F80504A61
:103D7000536D23F44013D4F88C100B435365236820
:103D800013F4803F00F0A380636D002B00F092805D
:103D9000B3F5803F00F0B1800126354697E0012160
:103DA00004F12800FFF770FB054611E701263546B0
:103DB00019E72E4617E70126354636E7B3F1804F5F
:103DC0003FF428AFB3F1A04F3FF424AFB3F1405F0D
:103DD0003FF420AF0126354627E7022104F12800F1
:103DE000FFF752FB054615E72E461EE7012635462E
:103DF0003DE7B3F5805F3FF42FAFB3F5A05F3FF42D
:103E00002BAFB3F5406F3FF427AF012635462EE7C1
:103E1000022104F12800FFF737FB05461CE72E4678
:103E200025E70126354644E7B3F5004F3FF436AFAA
:103E3000B3F5204F3FF432AFB3F5C04F3FF42EAF90
:103E40000126354635E7022104F12800FFF71CFB67
:103E5000054623E72E462CE7022104F12800FFF750
:103E600013FB00283FF42FAF01262CE7022104F1B9
:103E70002800FFF709FB00283FF437AF012634E79D
:103E8000022104F12800FFF7FFFA05464BE701265F
:103E9000354653E72E4651E7012104F12800FFF78C
:103EA000F3FA054660E70126354668E72E4666E7E1
:103EB000004402586F4AD36A43F40033D3621DBBF7
:103EC0006C4AD36C23F48033616D0B43D364236855
:103ED00013F0005F1AD1236813F4003F32D0D4F8F6
:103EE0008430B3F5807F1DD019D9B3F5007F1ED083
:103EF000B3F5407F1BD0012624E0022104F1080025
:103F0000FFF73EFA0546DAE72E46E0E7022104F124
:103F10002800FFF7B9FA0028DDD00126DBE733B12E
:103F200001260FE0534AD36A43F40033D36245B904
:103F3000504A536D23F44073D4F884100B435365F7
:103F400000E02E46236813F4801F06D0494A136D03
:103F500023F00043A16F0B431365236813F0805FC8
:103F600007D0444A136923F48043D4F8BC100B43B0
:103F70001361236813F4001F06D03E4A136D23F02B
:103F80008073216F0B431365236813F0804F09D0B2
:103F9000384B1A6922F400421A611A69D4F8C01029
:103FA0000A431A612368002B06DA324AD36C23F0E5
:103FB0004053A16D0B43D364236813F4000F07D063
:103FC0002C4A536D23F44003D4F890100B435365EF
:103FD000636813F0010F17D1636813F0020F1CD14F
:103FE000636813F0040F21D1636813F0080F26D122
:103FF000636813F0100F2BD1636813F0200F30D1DA
:1040000006B101263046F8BD002104F10800FFF793
:10401000B7F90028E0D00646DEE7012104F10800E8
:10402000FFF7AEF90028DBD00646D9E7022104F1FC
:104030000800FFF7A5F90028D6D00646D4E70021EE
:1040400004F12800FFF720FA0028D1D00646CFE778
:10405000012104F12800FFF717FA0028CCD006460A
:10406000CAE7022104F12800FFF70EFA0028C7D0A2
:104070000126C7E70044025808B5FFF73BF9054B96
:104080001B6AC3F30213044AD35C03F01F03D84036
:1040900008BD00BF004402588C81000810B4794B61
:1040A0009A6A9C6AC4F3053CD96AC1F30011DB6BC0
:1040B000C3F3CC0301FB03F314F47C3F00F0DD8079
:1040C00002F0030207EE903AF8EE677A012A4BD02D
:1040D000022A00F09880002A40F0B280694B1B68E9
:1040E00013F0200F23D067490A68C2F3C102664B60
:1040F000D34007EE103AF8EE476A07EE10CAB8EE62
:10410000476A86EE867A8B6BC3F3080306EE903A15
:10411000F8EE666A9FED5D6A67EE867A76EEA77ABC
:10412000F7EE006A77EEA67A27EE277A38E007EEF8
:1041300010CAF8EE476A9FED566A86EE267A514B12
:104140009B6BC3F3080306EE903AF8EE666A9FEDA8
:104150004F6A67EE867A76EEA77AF7EE006A77EE18
:10416000A67A27EE277A1BE007EE10CAF8EE476A18
:104170009FED486A86EE267A424B9B6BC3F3080399
:1041800006EE903AF8EE666A9FED406A67EE867A30
:1041900076EEA77AF7EE006A77EEA67A27EE277A10
:1041A000384A936BC3F3462307EE903AF8EE677AEA
:1041B000F7EE006A77EEA67A87EE276ABCEEC66A4B
:1041C00080ED006A936BC3F3064307EE903AF8EE76
:1041D000677A77EEA67A87EE276ABCEEC66A80ED2C
:1041E000016A936BC3F3066307EE903AF8EE677AC1
:1041F00077EEA67AC7EE276AFCEEE66AC0ED026AA1
:104200005DF8044B704707EE10CAF8EE476A9FED61
:10421000226A86EE267A1B4B9B6BC3F3080306EEDD
:10422000903AF8EE666A9FED196A67EE867A76EE46
:10423000A77AF7EE006A77EEA67A27EE277AAFE73D
:1042400007EE10CAF8EE476A9FED126A86EE267AEC
:104250000C4B9B6BC3F3080306EE903AF8EE666ACC
:104260009FED0A6A67EE867A76EEA77AF7EE006A25
:1042700077EEA67A27EE277A92E700230360436061
:104280008360BDE7004402580090D003000000396D
:104290000024744C0024744A20BCBE4B10B4794BEB
:1042A0009A6A9C6AC4F3055CD96AC1F300215B6C0D
:1042B000C3F3CC0301FB03F314F07C7F00F0DD803B
:1042C00002F0030207EE903AF8EE677A012A4BD02B
:1042D000022A00F09880002A40F0B280694B1B68E7
:1042E00013F0200F23D067490A68C2F3C102664B5E
:1042F000D34007EE103AF8EE476A07EE10CAB8EE60
:10430000476A86EE867A0B6CC3F3080306EE903A92
:10431000F8EE666A9FED5D6A67EE867A76EEA77ABA
:10432000F7EE006A77EEA67A27EE277A38E007EEF6
:1043300010CAF8EE476A9FED566A86EE267A514B10
:104340001B6CC3F3080306EE903AF8EE666A9FED25
:104350004F6A67EE867A76EEA77AF7EE006A77EE16
:10436000A67A27EE277A1BE007EE10CAF8EE476A16
:104370009FED486A86EE267A424B1B6CC3F3080316
:1043800006EE903AF8EE666A9FED406A67EE867A2E
:1043900076EEA77AF7EE006A77EEA67A27EE277A0E
:1043A000384A136CC3F3462307EE903AF8EE677A67
:1043B000F7EE006A77EEA67A87EE276ABCEEC66A49
:1043C00080ED006A136CC3F3064307EE903AF8EEF3
:1043D000677A77EEA67A87EE276ABCEEC66A80ED2A
:1043E000016A136CC3F3066307EE903AF8EE677A3E
:1043F00077EEA67AC7EE276AFCEEE66AC0ED026A9F
:104400005DF8044B704707EE10CAF8EE476A9FED5F
:10441000226A86EE267A1B4B1B6CC3F3080306EE5A
:10442000903AF8EE666A9FED196A67EE867A76EE44
:10443000A77AF7EE006A77EEA67A27EE277AAFE73B
:1044400007EE10CAF8EE476A9FED126A86EE267AEA
:104450000C4B1B6CC3F3080306EE903AF8EE666A49
:104460009FED0A6A67EE867A76EEA77AF7EE006A23
:1044700077EEA67A27EE277A92E70023036043605F
:104480008360BDE7004402580090D003000000396B
:104490000024744C0024744A20BCBE4B026852E8CD
:1044A000003F23F4907342E800310029F6D10268FE
:1044B00002F1080353E8001F0D4B0B40083242E89D
:1044C00000310029F3D1C36E012B06D02023C0F8A0
:1044D0008C300023C36643677047026852E8003F90
:1044E00023F0100342E800310029F6D1EEE700BFC7
:1044F000FEFFFFEF70B586B0044683680269134380
:1045000042691343C269134301680868884A02403C
:104510001A430A602268536823F44053E1680B434E
:104520005360A1692268834B9A4201D0236A1943E0
:104530009068814B03400B4393602268D36A23F059
:104540000F03616A0B43D36223687C4A934221D0F4
:104550007B4A934200F08C807A4A934200F0A2801A
:10456000794A934200F0B580784A934200F0C880BF
:10457000774A934200F0F480764A934200F0198122
:10458000754A934200F02C816A4A934200F03F81C1
:10459000802233E0714A526D02F03802282A65D831
:1045A000DFE812F029006400640064006400640025
:1045B000640064004D0164006400640064006400F1
:1045C000640064002B006400640064006400640004
:1045D000640064005E0064006400640064006400C1
:1045E00064006400600064006400640064006400AF
:1045F000640064006200012200E008224D498B4201
:1046000000F02F81E069B0F5004F00F0AF81202A63
:1046100000F20682202A00F25382DFE812F008023C
:1046200022025102510225025102510251022A0274
:1046300051025102510251025102510251022F0204
:1046400051025102510251025102510251025102D2
:1046500051025102510251025102510251023B02D8
:104660001022CBE72022C9E74022C7E78022C5E716
:104670003A4A526D02F00702052A11D8DFE812F01B
:104680000600E10008000A000C000E000022B5E759
:104690000822B3E71022B1E72022AFE74022ADE7BE
:1046A0008022ABE72D4A526D02F00702052A0ED890
:1046B000DFE802F003C90507090B00229EE7082284
:1046C0009CE710229AE7202298E7402296E7802272
:1046D00094E7224A526D02F00702052A0ED8DFE85D
:1046E00002F003B40507090B002287E7082285E7DB
:1046F000102283E7202281E740227FE780227DE7A6
:10470000164A526D02F00702052A0ED8DFE802F0C1
:10471000039F0507090B002270E708226EE71022AD
:104720006CE720226AE7402268E7802266E700BF44
:10473000F369FFCF000C0058FFF4FF110010014097
:104740000044004000480040004C00400050004041
:104750000014014000780040007C004000440258F2
:104760007D4A526D02F03802282A20D8DFE802F094
:10477000151F1F1F1F1F1F1F711F1F1F1F1F1F1F01
:10478000171F1F1F1F1F1F1F191F1F1F1F1F1F1F47
:104790001B1F1F1F1F1F1F1F1D0001222EE70822A6
:1047A0002CE710222AE7202228E7402226E7802251
:1047B00024E7694A526D02F00702052A0ED8DFE8A5
:1047C00002F0034A0507090B002217E7082215E744
:1047D000102213E7202211E740220FE780220DE785
:1047E0005D4A526D02F00702052A0ED8DFE802F09A
:1047F00003350507090B002200E70822FEE6102218
:10480000FCE62022FAE64022F8E68022F6E602F5EF
:104810000E32926D02F00702052A0ED8DFE802F090
:10482000031F0507090B0222E8E60822E6E610222C
:10483000E4E62022E2E64022E0E68022DEE60422F0
:10484000DCE60422DAE60422D8E60422D6E60422D4
:10485000D4E60422D2E60422D0E60422CEE60422E4
:10486000CCE6202A27D8022AC0F01881023A1E2A54
:1048700000F21681DFE812F0260014015600140140
:10488000140114015B00140114011401140114013A
:104890001401140160001401140114011401140125
:1048A0001401140114011401140114011401140160
:1048B000140114016C00402A02D14FF4004006E0BC
:1048C0000120FEE0FFF7D8FB002800F0EB80626AD1
:1048D000224B33F81220B0FBF2F3656805EB45017B
:1048E000994200F2E180B3EB053F00F2DF80002641
:1048F00033463146FBF744FD090241EA10610002EC
:104900006B08C0182A46334641F10001FBF738FD19
:10491000A0F54072124B9A4200F2CA802368D86018
:104920003046CEE003A8FFF7B9FB0498CCE7684611
:10493000FFF7B4FC0198C7E7074B1B6813F0200F83
:1049400008D0054B1B68C3F3C1030648D840BEE737
:104950000548BCE70348BAE700440258048300084E
:10496000FFFC0F000090D00300093D00202A15D85D
:10497000202A00F29F80DFE802F015369D9D399DC8
:104980009D9D3E9D9D9D9D9D9D9D439D9D9D9D9D10
:104990009D9D9D9D9D9D9D9D9D9D4F00402A06D066
:1049A00001208EE0FEF7C8FC002800F08580626AD6
:1049B0004B4B33F81230B0FBF3F06268530803EB53
:1049C0004003B3FBF2F3A3F110014FF6EF729142F3
:1049D00074D89AB222F00F02C3F342031343226841
:1049E000D36000206DE0FEF7B9FCDDE703A8FFF718
:1049F00055FB0498D8E76846FFF750FC0198D3E7C9
:104A0000384B1B6813F0200F08D0364B1B68C3F3DC
:104A1000C1033548D840CAE73448C8E73248C6E73A
:104A2000402A02D14FF4004005E0012049E0FEF7A2
:104A300083FC00284FD0626A294B33F81230B0FB58
:104A4000F3F0636800EB5300B0FBF3F0A0F1100249
:104A50004FF6EF739A4240D8236880B2D8600020A6
:104A60002FE0FEF77BFCE4E703A8FFF717FB0498B1
:104A7000DFE76846FFF712FC0198DAE7194B1B687D
:104A800013F0200F08D0174B1B68C3F3C10316485F
:104A9000D840D0E71548CEE71348CCE7012010E016
:104AA00001200EE000200CE001200AE0012008E0D7
:104AB000012006E0012004E0002002E0012000E0E7
:104AC00001200123A4F86A30A4F86830002363674A
:104AD000A36706B070BD0020F3E70120F1E700BF37
:104AE00004830008004402580090D00300093D00F0
:104AF000836A13F0080F06D00268536823F400435A
:104B0000816B0B435360836A13F0010F06D0026878
:104B1000536823F40033C16A0B435360836A13F074
:104B2000020F06D00268536823F48033016B0B43F5
:104B30005360836A13F0040F06D00268536823F4AD
:104B40008023416B0B435360836A13F0100F06D030
:104B50000268936823F48053C16B0B439360836AAC
:104B600013F0200F06D00268936823F40053016C01
:104B70000B439360836A13F0400F0AD002685368B6
:104B800023F48013416C0B435360436CB3F5801FD7
:104B90000BD0836A13F0800F06D00268536823F4A9
:104BA0000023C16C0B43536070470268536823F4C1
:104BB000C003816C0B435360EBE72DE9F8430546D6
:104BC0000E4617469946DDF820802B68DC6936EAE8
:104BD00004040CBF01240024BC423AD1B8F1FF3FC9
:104BE000F3D0FCF781FAA0EB0900404534D8B8F1C6
:104BF000000F33D02B681A6812F0040FE5D0B6F11D
:104C0000400218BF0122802EDFD0002ADDD0DA69F1
:104C100012F0080F11D1DA6912F4006FD5D04FF4F9
:104C200000621A622846FFF739FC2023C5F890304D
:104C3000002385F8843003200CE008241C622846F9
:104C4000FFF72CFCC5F89040002385F88430012044
:104C500000E00020BDE8F8830320FBE70320F9E72C
:104C600030B583B004460023C0F89030FCF73CFA1E
:104C700005462268126812F0080F10D123681B68DD
:104C800013F0040F28D12023C4F88830C4F88C30E6
:104C90000020E066206784F8840003B030BD6FF028
:104CA0007E430093034600224FF400112046FFF795
:104CB00084FF0028E2D0226852E8003F23F08003FE
:104CC00042E800310029F6D12023C4F888300023BF
:104CD00084F884300320E0E76FF07E4300932B4696
:104CE00000224FF480012046FFF767FF0028CAD05A
:104CF000226852E8003F23F4907342E80031002913
:104D0000F6D1226802F1080353E8003F23F00103C3
:104D1000083242E800310029F3D12023C4F88C3056
:104D2000002384F884300320B7E778B310B5044635
:104D3000D0F888300BB32423C4F888302268136875
:104D400023F001031360A36AE3B92046FFF7D2FB07
:104D5000012811D02268536823F4904353602268DD
:104D6000936823F02A0393602268136843F00103D9
:104D700013602046FFF774FF10BD80F88430FBF706
:104D800037FFD8E72046FFF7B3FEDEE70120704784
:104D9000436E2BB90123A0F86A30A0F86830704741
:104DA00030B403689A68C2F342629968490F094DAA
:104DB0006B5C1B01084C615C93FBF1F3A0F86A305B
:104DC000AB5C1B01A25C93FBF2F3A0F8683030BC33
:104DD000704700BF248300081C83000890F88430CB
:104DE000012B18D0012380F884302423C0F88830A8
:104DF00003681A68196821F00101196022F0005255
:104E00000023436601680A602022C0F8882080F8E9
:104E10008430184670470220704738B590F88430C7
:104E2000012B1DD00446012380F884302423C0F8D0
:104E3000883003681D681A6822F001021A6002684F
:104E4000936823F0604319439160FFF7A1FF236843
:104E50001D602023C4F88830002084F8840038BD09
:104E60000220FCE738B590F88430012B1DD00446B1
:104E7000012380F884302423C0F8883003681D683B
:104E80001A6822F001021A600268936823F06063D6
:104E900019439160FFF77CFF23681D602023C4F84D
:104EA0008830002084F8840038BD0220FCE782B0FE
:104EB00000230193019B01330193019BB3F1706FB8
:104EC00015D80369002BF5DA00230193036943F039
:104ED00001030361019B01330193019BB3F1706FE7
:104EE00008D8036913F0010FF4D1002000E003207B
:104EF00002B070470320FBE784B010B5044603A856
:104F000080E80E009DF81130012B1FD1A36B23F414
:104F10008033A363E2681F4B1340E360E36823F42C
:104F20004013E3609DF81830012B0AD02046FFF7AC
:104F3000BEFF9DF80E30012B1CD0BDE8104004B020
:104F40007047E36843F48013E360EFE7E36843F0FE
:104F50004003E3602046FFF7AAFF9DF8153023B910
:104F6000A36B43F48033A363E3E7A36B23F48033A1
:104F7000A363DEE7E36D9BB2E365E26D064B13438B
:104F8000E365A36843F00603A360A36843F020032E
:104F9000A360D2E7BFFFBDFF0000EE03022A0AD0E4
:104FA0000922C36823F47053C360C36843EA8223B1
:104FB000C36000207047204B0B44204A934229D9FC
:104FC0001F4B0B441F4A934226D91F4B0B441F4AC9
:104FD000934223D91E4B0B441E4A934220D31E4BAF
:104FE0000B441E4A93421DD91D4B0B441D4A93424C
:104FF0001AD31D4B0B441D4A934217D31C4B0B4431
:105000001C4A934214D31C4B0B441C4A934211D2AA
:105010000722C6E70F22C4E70E22C2E70D22C0E72F
:105020000C22BEE70B22BCE70A22BAE70922B8E746
:105030000822B6E70622B4E7405327FFFF340C00EE
:10504000401E1BFF3F420F0000DC0BFF7F4F120092
:10505000808CF9FE20D6130060B6E5FE5FE31600F3
:1050600000D3CEFE40771B00C05BB3FEC091210091
:1050700000CA91FE20753800E05459FEE09C4100C2
:10508000836843F00103836000207047836823F046
:10509000010383600020704782B000230193019BCD
:1050A00001330193019BB3F1706F15D80369002B95
:1050B000F5DA00230193890141F020010161019B90
:1050C00001330193019BB3F1706F08D8036913F0AA
:1050D000200FF4D1002000E0032002B0704703202D
:1050E000FBE782B000230193019B01330193019BF5
:1050F000B3F1706F13D80369002BF5DA0023019325
:1051000010230361019B01330193019BB3F1706F85
:1051100008D8036913F0100FF4D1002000E0032039
:1051200002B070470320FBE7D0F800381943C0F8FD
:10513000001800207047000084B0F8B5044607A8A6
:1051400080E80E00002306E003F1400204EB820237
:105150000021516001330E2BF6D99DF8266006BB65
:10516000D4F8043843F00203C4F80438A36B23F4E2
:105170000013A363236843F040032360236843F0D4
:10518000800323600023C4F8003E9DF82130012BEA
:1051900011D19DF81F304BB900212046FFF7C4FF05
:1051A0000DE0A36B43F40013A363EBE7012120465A
:1051B000FFF7BAFF03E003212046FFF7B5FF1021F8
:1051C0002046FFF769FF054600B101252046FFF79D
:1051D00088FF00B1012504F5006C0023CCF81030E5
:1051E000CCF81430CCF81C300AE0CBB94FF000609A
:1051F000C2F8000900220A614FF67F328A6001334B
:105200009DF81C10994210D904EB431202F510616D
:10521000D2F800090028E8DB0020C2F80009E9E71D
:105220004FF09040C2F80009E4E700230AE0BBB168
:105230004FF09047C2F8007B002202614FF67F32A8
:1052400082600133994210D904EB431202F53060B9
:10525000D2F8007B002FEADB0027C2F8007BEBE7E7
:105260004FF00067C2F8007BE6E7DCF8103023F46B
:105270008073CCF810300023A3616FF0804363612A
:105280009DF81E301BB9A36943F01003A361A26906
:105290000A4B1343A3619DF822301BB1A36943F06D
:1052A0000803A361012E04D02846BDE8F84004B0ED
:1052B0007047A269024B1343A361F5E700383C80B5
:1052C00004000040D0F8083803F00603022B04D095
:1052D000062B04D02BB90020704702207047022013
:1052E00070470F207047000010B591F800C04B7850
:1052F000012B21D000F5006ED0F81C380CF00F0403
:105300000122A24043EA0243C0F81C3800EB4C10D3
:10531000D0F8003B13F4004F0CD1D0F8002B8B6871
:10532000C3F30A03097943EA81431A43134B134336
:10533000C0F8003B002010BDD0F81C280CF00F0E68
:1053400003FA0EF39BB21343C0F81C3800EB4C1069
:10535000D0F8003913F4004FECD1D0F800298B6855
:10536000C3F30A03097943EA814343EA8C531A439E
:10537000024B1343C0F80039DCE700BF0080001087
:1053800010B483B0024600230193487801280BD063
:105390000B7802EB4313D3F8000B00282DDB002021
:1053A00003B05DF8044B70470B7802EB4313D3F85E
:1053B0000049002C01DB0020F2E7D3F8004944F05B
:1053C0000064C3F800490B7802EB4313D3F800499B
:1053D00044F08044C3F80049019B01330193019CD0
:1053E00042F210739C42DBD80B7802EB4313D3F8E4
:1053F0000039002BF0DB0020D2E7D3F8000B40F09F
:105400000060C3F8000B0B7802EB4313D3F8000BDA
:1054100040F08040C3F8000B019B013301930198D9
:1054200042F21073984208D80B7802EB4313D3F87A
:10543000003B002BF0DB0020B2E70120B0E710B505
:105440009DF8084084B903334FEA930E4FF0000CE7
:1054500008E000EB023303F5805351F8044B1C6065
:105460000CF1010CF445F4D3002010BDF0B583B06D
:105470000C784B78012B2DD000EB441C0CF53063DD
:105480001D696FF312051D611D696FF3DC451D6118
:10549000002C40F0CE800C690CB18C680C618C68DB
:1054A0000C621D69C4F312042C431C611C6944F492
:1054B00000241C61012A00F0DF800B79012B00F031
:1054C000E180DCF8003B43F00443CCF8003B0020D3
:1054D00003B0F0BD0B6973BB00EB4413D3F8105954
:1054E0006FF3DC45C3F81059D3F8105945F4002583
:1054F000C3F81059D3F810596FF31205C3F81059B7
:10550000012A54D000EB4414D4F8003943F004438A
:10551000C4F800390B79012B72D00B69002BD6D05F
:10552000D0F83438097801F00F0101228A40134382
:10553000C0F83438CBE700EB441303F510631D6962
:105540006FF312051D611D696FF3DC451D6184B9A0
:105550000E698D68AE4200D90D611D6945F40025C4
:105560001D611D690E69C6F3120C45EA0C051D612B
:10557000C6E70D698E683544013DB5FBF6F51E6939
:105580001FFA85FC494F07EAC54535431D610D7972
:10559000012DE6D11D6925F0C0451D611D694FEA49
:1055A0004C7C0CF0C04C45EA0C051D61D9E7CB6979
:1055B0001BB100EB4412C2F814390B79012B08D04F
:1055C00000EB4414D4F8003943F00443C4F8003924
:1055D0007DE7D0F8083813F4807F08D100EB44123F
:1055E000D2F8003943F00053C2F80039E8E700EB85
:1055F0004412D2F8003943F08053C2F80039DFE793
:10560000D0F8083813F4807F0CD1D4F8003943F077
:105610000053C4F8003900920B8A0A78C968FFF772
:105620000EFF54E7D4F8003943F08053C4F8003932
:10563000F1E70C6954B91C698D68C5F312052C4358
:105640001C611C6944F400241C6133E78D682C4400
:10565000013CB4FBF5F4A4B204FB05F50D621D6931
:10566000124E06EAC4442C431C611C690D6AC5F342
:1056700012052C431C611DE7CA68002A3FF41DAFC8
:105680005A611AE7D0F8083813F4807F06D1DCF8A5
:10569000003B43F00053CCF8003B12E7DCF8003B42
:1056A00043F08053CCF8003B0BE700BF0000F81F2D
:1056B00010B5844608464FEA920E02F0030200231A
:1056C00005E00CF58051096840F8041B013373456F
:1056D000F7D37AB10CF5805CDCF800400021CBB246
:1056E000DB0024FA03F300F8013B0131013A92B2E6
:1056F000002AF4D110BD0B784A78012A14D000EBAF
:105700004310D0F8002B002A06DB2BB1D0F8003B69
:1057100023F08043C0F8003BD0F8003B43F4001373
:10572000C0F8003B0020704700EB4310D0F8002980
:10573000002A06DB2BB1D0F8003923F08043C0F8F3
:105740000039D0F8003943F40013C0F80039E9E714
:105750000B784A78012A0ED000EB4310D0F8003BBA
:1057600023F40013C0F8003B0B79023BDBB2012BA2
:1057700015D90020704700EB4310D0F8003923F40E
:105780000013C0F800390B79023BDBB2012BF0D8D3
:10579000D0F8003943F08053C0F80039E9E7D0F879
:1057A000003B43F08053C0F8003BE2E7D0F80038FC
:1057B00023F4FE63C0F80038D0F80038090101F482
:1057C000FE610B43C0F8003800207047D0F8003E5F
:1057D00023F00303C0F8003ED0F8043823F002039E
:1057E000C0F8043800207047D0F8003E23F00303CF
:1057F000C0F8003ED0F8043843F00203C0F8043883
:10580000002070474269806910407047D0F818380E
:1058100000F50060C0691840000C7047D0F81838D7
:1058200000F50060C069184080B2704700EB41117C
:10583000D1F8082B00F50060406910407047D0F89F
:105840001028D0F8343801F00F0C23FA0CF3DB01E8
:10585000DBB2134300EB411000F510608068184084
:105860007047406900F00100704738B50546C368CD
:1058700023F0C043C360012913D019BBC36843F0B0
:105880008043C36000240A20FBF734FC0A34284616
:10589000FFF7E7FF08B1C72CF5D9C82C14D00020BA
:1058A00038BDC36843F00053C36000240A20FBF7EF
:1058B00021FC0A342846FFF7D4FF0128EDD0C72C7D
:1058C000F4D9EAE70120EBE70120E9E7D0F8003955
:1058D0006FF30A03C0F80039D0F8043843F480733A
:1058E000C0F804380020704710B4046C154B9C427B
:1058F00003D9D0F8003B002B16DB0024C0F8104B76
:10590000D0F8104B44F40024C0F8104BD0F8104BE2
:1059100044F01804C0F8104BD0F8104B44F0C044C9
:10592000C0F8104B012903D000205DF8044B7047EC
:10593000C0F8142BD0F8003B43F08023C0F8003BA4
:10594000F2E700BF0A30544F704798B108B50346DC
:105950000020C3F8B802C3F8C402C3F8D00209B1EA
:10596000C3F8B412012183F89C121A70184601F092
:1059700033FC08BD0320704710B582B00023ADF89A
:105980000630B9B10446C0F8B812D0F8D422CB6AB8
:1059900043B1AE3250F82230DB6A0DF10600984771
:1059A000C4F8D002D4F8D8320133C4F8D832002079
:1059B00002B010BD0320FBE708B501F06AFC08BD8A
:1059C00010B5044601F06DFCD4F8B8321BB15B6829
:1059D000217920469847002010BD08B5D0F8B8328C
:1059E00013B11B68984708BD0020FCE708B5D0F844
:1059F000B8325B68984700B908BD0320FCE738B5AA
:105A0000044600F2AA25284600F0A9F90123C4F8AB
:105A10009432B4F8B032C4F8983294F8AA1201F073
:105A20001F03012B07D0022B0AD073B92946204649
:105A300000F098FB38BD2946204600F0CEFBF9E780
:105A40002946204600F00BFCF4E701F080012046D7
:105A500001F03AFCEEE7F8B50446012380F89C32E9
:105A60000023C0F894324360C0F8A43280F8A0321A
:105A7000D0F8B832DBB15B68DBB10021984707464C
:105A8000C8B9402300221146204601F012FC01262D
:105A9000A4F864614025C4F860512B46002280219F
:105AA000204601F006FCA68425623846F8BD002792
:105AB000E7E70027E5E70327E3E7017400207047E5
:105AC00090F89C32DBB2042B04D090F89C32DBB20D
:105AD00080F89D32042380F89C320020704790F8B3
